{
  "_format": "hh-sol-artifact-1",
  "contractName": "DeganToken",
  "sourceName": "contracts/DeganToken.sol",
  "abi": [
    {
      "inputs": [],
      "stateMutability": "nonpayable",
      "type": "constructor"
    },
    {
      "inputs": [
        {
          "internalType": "address",
          "name": "spender",
          "type": "address"
        },
        {
          "internalType": "uint256",
          "name": "allowance",
          "type": "uint256"
        },
        {
          "internalType": "uint256",
          "name": "needed",
          "type": "uint256"
        }
      ],
      "name": "ERC20InsufficientAllowance",
      "type": "error"
    },
    {
      "inputs": [
        {
          "internalType": "address",
          "name": "sender",
          "type": "address"
        },
        {
          "internalType": "uint256",
          "name": "balance",
          "type": "uint256"
        },
        {
          "internalType": "uint256",
          "name": "needed",
          "type": "uint256"
        }
      ],
      "name": "ERC20InsufficientBalance",
      "type": "error"
    },
    {
      "inputs": [
        {
          "internalType": "address",
          "name": "approver",
          "type": "address"
        }
      ],
      "name": "ERC20InvalidApprover",
      "type": "error"
    },
    {
      "inputs": [
        {
          "internalType": "address",
          "name": "receiver",
          "type": "address"
        }
      ],
      "name": "ERC20InvalidReceiver",
      "type": "error"
    },
    {
      "inputs": [
        {
          "internalType": "address",
          "name": "sender",
          "type": "address"
        }
      ],
      "name": "ERC20InvalidSender",
      "type": "error"
    },
    {
      "inputs": [
        {
          "internalType": "address",
          "name": "spender",
          "type": "address"
        }
      ],
      "name": "ERC20InvalidSpender",
      "type": "error"
    },
    {
      "anonymous": false,
      "inputs": [
        {
          "indexed": true,
          "internalType": "address",
          "name": "owner",
          "type": "address"
        },
        {
          "indexed": true,
          "internalType": "address",
          "name": "spender",
          "type": "address"
        },
        {
          "indexed": false,
          "internalType": "uint256",
          "name": "value",
          "type": "uint256"
        }
      ],
      "name": "Approval",
      "type": "event"
    },
    {
      "anonymous": false,
      "inputs": [
        {
          "indexed": true,
          "internalType": "address",
          "name": "from",
          "type": "address"
        },
        {
          "indexed": false,
          "internalType": "uint256",
          "name": "amount",
          "type": "uint256"
        }
      ],
      "name": "Burned",
      "type": "event"
    },
    {
      "anonymous": false,
      "inputs": [
        {
          "indexed": true,
          "internalType": "address",
          "name": "to",
          "type": "address"
        },
        {
          "indexed": false,
          "internalType": "uint256",
          "name": "amount",
          "type": "uint256"
        }
      ],
      "name": "Minted",
      "type": "event"
    },
    {
      "anonymous": false,
      "inputs": [
        {
          "indexed": true,
          "internalType": "address",
          "name": "from",
          "type": "address"
        },
        {
          "indexed": true,
          "internalType": "address",
          "name": "to",
          "type": "address"
        },
        {
          "indexed": false,
          "internalType": "uint256",
          "name": "amount",
          "type": "uint256"
        },
        {
          "indexed": false,
          "internalType": "string",
          "name": "code",
          "type": "string"
        }
      ],
      "name": "Redeemed",
      "type": "event"
    },
    {
      "anonymous": false,
      "inputs": [
        {
          "indexed": false,
          "internalType": "string",
          "name": "code",
          "type": "string"
        },
        {
          "indexed": false,
          "internalType": "uint256",
          "name": "amount",
          "type": "uint256"
        }
      ],
      "name": "RedemptionCodeGenerated",
      "type": "event"
    },
    {
      "anonymous": false,
      "inputs": [
        {
          "indexed": true,
          "internalType": "address",
          "name": "storeAddress",
          "type": "address"
        }
      ],
      "name": "StoreAddressSet",
      "type": "event"
    },
    {
      "anonymous": false,
      "inputs": [
        {
          "indexed": true,
          "internalType": "address",
          "name": "from",
          "type": "address"
        },
        {
          "indexed": true,
          "internalType": "address",
          "name": "to",
          "type": "address"
        },
        {
          "indexed": false,
          "internalType": "uint256",
          "name": "value",
          "type": "uint256"
        }
      ],
      "name": "Transfer",
      "type": "event"
    },
    {
      "inputs": [
        {
          "internalType": "address",
          "name": "owner",
          "type": "address"
        },
        {
          "internalType": "address",
          "name": "spender",
          "type": "address"
        }
      ],
      "name": "allowance",
      "outputs": [
        {
          "internalType": "uint256",
          "name": "",
          "type": "uint256"
        }
      ],
      "stateMutability": "view",
      "type": "function"
    },
    {
      "inputs": [
        {
          "internalType": "address",
          "name": "spender",
          "type": "address"
        },
        {
          "internalType": "uint256",
          "name": "value",
          "type": "uint256"
        }
      ],
      "name": "approve",
      "outputs": [
        {
          "internalType": "bool",
          "name": "",
          "type": "bool"
        }
      ],
      "stateMutability": "nonpayable",
      "type": "function"
    },
    {
      "inputs": [
        {
          "internalType": "address",
          "name": "account",
          "type": "address"
        }
      ],
      "name": "balanceOf",
      "outputs": [
        {
          "internalType": "uint256",
          "name": "",
          "type": "uint256"
        }
      ],
      "stateMutability": "view",
      "type": "function"
    },
    {
      "inputs": [
        {
          "internalType": "uint256",
          "name": "amount",
          "type": "uint256"
        }
      ],
      "name": "burn",
      "outputs": [],
      "stateMutability": "nonpayable",
      "type": "function"
    },
    {
      "inputs": [],
      "name": "decimals",
      "outputs": [
        {
          "internalType": "uint8",
          "name": "",
          "type": "uint8"
        }
      ],
      "stateMutability": "view",
      "type": "function"
    },
    {
      "inputs": [
        {
          "internalType": "string",
          "name": "code",
          "type": "string"
        },
        {
          "internalType": "uint256",
          "name": "amount",
          "type": "uint256"
        }
      ],
      "name": "generateRedemptionCode",
      "outputs": [
        {
          "internalType": "string",
          "name": "",
          "type": "string"
        }
      ],
      "stateMutability": "nonpayable",
      "type": "function"
    },
    {
      "inputs": [
        {
          "internalType": "address",
          "name": "to",
          "type": "address"
        },
        {
          "internalType": "uint256",
          "name": "amount",
          "type": "uint256"
        }
      ],
      "name": "mint",
      "outputs": [],
      "stateMutability": "nonpayable",
      "type": "function"
    },
    {
      "inputs": [],
      "name": "name",
      "outputs": [
        {
          "internalType": "string",
          "name": "",
          "type": "string"
        }
      ],
      "stateMutability": "view",
      "type": "function"
    },
    {
      "inputs": [],
      "name": "owner",
      "outputs": [
        {
          "internalType": "address",
          "name": "",
          "type": "address"
        }
      ],
      "stateMutability": "view",
      "type": "function"
    },
    {
      "inputs": [
        {
          "internalType": "uint256",
          "name": "amount",
          "type": "uint256"
        },
        {
          "internalType": "string",
          "name": "code",
          "type": "string"
        }
      ],
      "name": "redeem",
      "outputs": [],
      "stateMutability": "nonpayable",
      "type": "function"
    },
    {
      "inputs": [
        {
          "internalType": "address",
          "name": "_storeAddress",
          "type": "address"
        }
      ],
      "name": "setStoreAddress",
      "outputs": [],
      "stateMutability": "nonpayable",
      "type": "function"
    },
    {
      "inputs": [],
      "name": "storeAddress",
      "outputs": [
        {
          "internalType": "address",
          "name": "",
          "type": "address"
        }
      ],
      "stateMutability": "view",
      "type": "function"
    },
    {
      "inputs": [],
      "name": "symbol",
      "outputs": [
        {
          "internalType": "string",
          "name": "",
          "type": "string"
        }
      ],
      "stateMutability": "view",
      "type": "function"
    },
    {
      "inputs": [],
      "name": "totalSupply",
      "outputs": [
        {
          "internalType": "uint256",
          "name": "",
          "type": "uint256"
        }
      ],
      "stateMutability": "view",
      "type": "function"
    },
    {
      "inputs": [
        {
          "internalType": "address",
          "name": "to",
          "type": "address"
        },
        {
          "internalType": "uint256",
          "name": "value",
          "type": "uint256"
        }
      ],
      "name": "transfer",
      "outputs": [
        {
          "internalType": "bool",
          "name": "",
          "type": "bool"
        }
      ],
      "stateMutability": "nonpayable",
      "type": "function"
    },
    {
      "inputs": [
        {
          "internalType": "address",
          "name": "from",
          "type": "address"
        },
        {
          "internalType": "address",
          "name": "to",
          "type": "address"
        },
        {
          "internalType": "uint256",
          "name": "value",
          "type": "uint256"
        }
      ],
      "name": "transferFrom",
      "outputs": [
        {
          "internalType": "bool",
          "name": "",
          "type": "bool"
        }
      ],
      "stateMutability": "nonpayable",
      "type": "function"
    }
  ],
  "bytecode": "0x60806040523480156200001157600080fd5b506040518060400160405280600a81526020017f446567616e546f6b656e000000000000000000000000000000000000000000008152506040518060400160405280600381526020017f444754000000000000000000000000000000000000000000000000000000000081525081600390816200008f919062000365565b508060049081620000a1919062000365565b50505033600560006101000a81548173ffffffffffffffffffffffffffffffffffffffff021916908373ffffffffffffffffffffffffffffffffffffffff1602179055506200044c565b600081519050919050565b7f4e487b7100000000000000000000000000000000000000000000000000000000600052604160045260246000fd5b7f4e487b7100000000000000000000000000000000000000000000000000000000600052602260045260246000fd5b600060028204905060018216806200016d57607f821691505b60208210810362000183576200018262000125565b5b50919050565b60008190508160005260206000209050919050565b60006020601f8301049050919050565b600082821b905092915050565b600060088302620001ed7fffffffffffffffffffffffffffffffffffffffffffffffffffffffffffffffff82620001ae565b620001f98683620001ae565b95508019841693508086168417925050509392505050565b6000819050919050565b6000819050919050565b600062000246620002406200023a8462000211565b6200021b565b62000211565b9050919050565b6000819050919050565b620002628362000225565b6200027a62000271826200024d565b848454620001bb565b825550505050565b600090565b6200029162000282565b6200029e81848462000257565b505050565b5b81811015620002c657620002ba60008262000287565b600181019050620002a4565b5050565b601f8211156200031557620002df8162000189565b620002ea846200019e565b81016020851015620002fa578190505b6200031262000309856200019e565b830182620002a3565b50505b505050565b600082821c905092915050565b60006200033a600019846008026200031a565b1980831691505092915050565b600062000355838362000327565b9150826002028217905092915050565b6200037082620000eb565b67ffffffffffffffff8111156200038c576200038b620000f6565b5b62000398825462000154565b620003a5828285620002ca565b600060209050601f831160018114620003dd5760008415620003c8578287015190505b620003d4858262000347565b86555062000444565b601f198416620003ed8662000189565b60005b828110156200041757848901518255600182019150602085019450602081019050620003f0565b8683101562000437578489015162000433601f89168262000327565b8355505b6001600288020188555050505b505050505050565b611b13806200045c6000396000f3fe608060405234801561001057600080fd5b50600436106101005760003560e01c806342966c681161009757806395d89b411161006657806395d89b41146102ad578063a9059cbb146102cb578063dd62ed3e146102fb578063f2c4da931461032b57610100565b806342966c68146102275780636559e59a1461024357806370a082311461025f5780638da5cb5b1461028f57610100565b806323b872dd116100d357806323b872dd146101a157806324b76fd5146101d1578063313ce567146101ed57806340c10f191461020b57610100565b806301ebcc351461010557806306fdde0314610135578063095ea7b31461015357806318160ddd14610183575b600080fd5b61011f600480360381019061011a91906113ed565b610349565b60405161012c91906114c8565b60405180910390f35b61013d61046c565b60405161014a91906114c8565b60405180910390f35b61016d60048036038101906101689190611548565b6104fe565b60405161017a91906115a3565b60405180910390f35b61018b610521565b60405161019891906115cd565b60405180910390f35b6101bb60048036038101906101b691906115e8565b61052b565b6040516101c891906115a3565b60405180910390f35b6101eb60048036038101906101e6919061163b565b61055a565b005b6101f5610784565b60405161020291906116b3565b60405180910390f35b61022560048036038101906102209190611548565b61078d565b005b610241600480360381019061023c91906116ce565b610879565b005b61025d600480360381019061025891906116fb565b6108d4565b005b610279600480360381019061027491906116fb565b6109eb565b60405161028691906115cd565b60405180910390f35b610297610a33565b6040516102a49190611737565b60405180910390f35b6102b5610a59565b6040516102c291906114c8565b60405180910390f35b6102e560048036038101906102e09190611548565b610aeb565b6040516102f291906115a3565b60405180910390f35b61031560048036038101906103109190611752565b610b0e565b60405161032291906115cd565b60405180910390f35b610333610b95565b6040516103409190611737565b60405180910390f35b6060600560009054906101000a900473ffffffffffffffffffffffffffffffffffffffff1673ffffffffffffffffffffffffffffffffffffffff163373ffffffffffffffffffffffffffffffffffffffff16146103db576040517f08c379a00000000000000000000000000000000000000000000000000000000081526004016103d2906117de565b60405180910390fd5b816007846040516103ec919061183a565b90815260200160405180910390208190555061042a600560009054906101000a900473ffffffffffffffffffffffffffffffffffffffff1683610bbb565b7f569aec60a3d3fcb4b3dae1d57768cd7b5652d1a0389ca22b2d22ec092fde1992838360405161045b929190611851565b60405180910390a182905092915050565b60606003805461047b906118b0565b80601f01602080910402602001604051908101604052809291908181526020018280546104a7906118b0565b80156104f45780601f106104c9576101008083540402835291602001916104f4565b820191906000526020600020905b8154815290600101906020018083116104d757829003601f168201915b5050505050905090565b600080610509610c3d565b9050610516818585610c45565b600191505092915050565b6000600254905090565b600080610536610c3d565b9050610543858285610c57565b61054e858585610ceb565b60019150509392505050565b600073ffffffffffffffffffffffffffffffffffffffff16600660009054906101000a900473ffffffffffffffffffffffffffffffffffffffff1673ffffffffffffffffffffffffffffffffffffffff16036105eb576040517f08c379a00000000000000000000000000000000000000000000000000000000081526004016105e29061192d565b60405180910390fd5b816007826040516105fc919061183a565b908152602001604051809103902054101561064c576040517f08c379a0000000000000000000000000000000000000000000000000000000008152600401610643906119bf565b60405180910390fd5b8160078260405161065d919061183a565b9081526020016040518091039020600082825461067a9190611a0e565b925050819055506000600782604051610693919061183a565b908152602001604051809103902054036106ca576007816040516106b7919061183a565b9081526020016040518091039020600090555b6106f7600660009054906101000a900473ffffffffffffffffffffffffffffffffffffffff163384610ceb565b3373ffffffffffffffffffffffffffffffffffffffff16600660009054906101000a900473ffffffffffffffffffffffffffffffffffffffff1673ffffffffffffffffffffffffffffffffffffffff167f81b1bce0cc843f526fddf5d369c650e9d717cd811d8e08654ab113d3ea464a0e8484604051610778929190611a42565b60405180910390a35050565b60006012905090565b600560009054906101000a900473ffffffffffffffffffffffffffffffffffffffff1673ffffffffffffffffffffffffffffffffffffffff163373ffffffffffffffffffffffffffffffffffffffff161461081d576040517f08c379a0000000000000000000000000000000000000000000000000000000008152600401610814906117de565b60405180910390fd5b6108278282610bbb565b8173ffffffffffffffffffffffffffffffffffffffff167f30385c845b448a36257a6a1716e6ad2e1bc2cbe333cde1e69fe849ad6511adfe8260405161086d91906115cd565b60405180910390a25050565b6108833382610ddf565b3373ffffffffffffffffffffffffffffffffffffffff167f696de425f79f4a40bc6d2122ca50507f0efbeabbff86a84871b7196ab8ea8df7826040516108c991906115cd565b60405180910390a250565b600560009054906101000a900473ffffffffffffffffffffffffffffffffffffffff1673ffffffffffffffffffffffffffffffffffffffff163373ffffffffffffffffffffffffffffffffffffffff1614610964576040517f08c379a000000000000000000000000000000000000000000000000000000000815260040161095b906117de565b60405180910390fd5b80600660006101000a81548173ffffffffffffffffffffffffffffffffffffffff021916908373ffffffffffffffffffffffffffffffffffffffff1602179055508073ffffffffffffffffffffffffffffffffffffffff167f945bba8a140fa9dac5f6f21fd58d7544e44150913a8a30dc366f4b525cf1280460405160405180910390a250565b60008060008373ffffffffffffffffffffffffffffffffffffffff1673ffffffffffffffffffffffffffffffffffffffff168152602001908152602001600020549050919050565b600560009054906101000a900473ffffffffffffffffffffffffffffffffffffffff1681565b606060048054610a68906118b0565b80601f0160208091040260200160405190810160405280929190818152602001828054610a94906118b0565b8015610ae15780601f10610ab657610100808354040283529160200191610ae1565b820191906000526020600020905b815481529060010190602001808311610ac457829003601f168201915b5050505050905090565b600080610af6610c3d565b9050610b03818585610ceb565b600191505092915050565b6000600160008473ffffffffffffffffffffffffffffffffffffffff1673ffffffffffffffffffffffffffffffffffffffff16815260200190815260200160002060008373ffffffffffffffffffffffffffffffffffffffff1673ffffffffffffffffffffffffffffffffffffffff16815260200190815260200160002054905092915050565b600660009054906101000a900473ffffffffffffffffffffffffffffffffffffffff1681565b600073ffffffffffffffffffffffffffffffffffffffff168273ffffffffffffffffffffffffffffffffffffffff1603610c2d5760006040517fec442f05000000000000000000000000000000000000000000000000000000008152600401610c249190611737565b60405180910390fd5b610c3960008383610e61565b5050565b600033905090565b610c528383836001611086565b505050565b6000610c638484610b0e565b90507fffffffffffffffffffffffffffffffffffffffffffffffffffffffffffffffff8114610ce55781811015610cd5578281836040517ffb8f41b2000000000000000000000000000000000000000000000000000000008152600401610ccc93929190611a72565b60405180910390fd5b610ce484848484036000611086565b5b50505050565b600073ffffffffffffffffffffffffffffffffffffffff168373ffffffffffffffffffffffffffffffffffffffff1603610d5d5760006040517f96c6fd1e000000000000000000000000000000000000000000000000000000008152600401610d549190611737565b60405180910390fd5b600073ffffffffffffffffffffffffffffffffffffffff168273ffffffffffffffffffffffffffffffffffffffff1603610dcf5760006040517fec442f05000000000000000000000000000000000000000000000000000000008152600401610dc69190611737565b60405180910390fd5b610dda838383610e61565b505050565b600073ffffffffffffffffffffffffffffffffffffffff168273ffffffffffffffffffffffffffffffffffffffff1603610e515760006040517f96c6fd1e000000000000000000000000000000000000000000000000000000008152600401610e489190611737565b60405180910390fd5b610e5d82600083610e61565b5050565b600073ffffffffffffffffffffffffffffffffffffffff168373ffffffffffffffffffffffffffffffffffffffff1603610eb3578060026000828254610ea79190611aa9565b92505081905550610f86565b60008060008573ffffffffffffffffffffffffffffffffffffffff1673ffffffffffffffffffffffffffffffffffffffff16815260200190815260200160002054905081811015610f3f578381836040517fe450d38c000000000000000000000000000000000000000000000000000000008152600401610f3693929190611a72565b60405180910390fd5b8181036000808673ffffffffffffffffffffffffffffffffffffffff1673ffffffffffffffffffffffffffffffffffffffff16815260200190815260200160002081905550505b600073ffffffffffffffffffffffffffffffffffffffff168273ffffffffffffffffffffffffffffffffffffffff1603610fcf578060026000828254039250508190555061101c565b806000808473ffffffffffffffffffffffffffffffffffffffff1673ffffffffffffffffffffffffffffffffffffffff168152602001908152602001600020600082825401925050819055505b8173ffffffffffffffffffffffffffffffffffffffff168373ffffffffffffffffffffffffffffffffffffffff167fddf252ad1be2c89b69c2b068fc378daa952ba7f163c4a11628f55a4df523b3ef8360405161107991906115cd565b60405180910390a3505050565b600073ffffffffffffffffffffffffffffffffffffffff168473ffffffffffffffffffffffffffffffffffffffff16036110f85760006040517fe602df050000000000000000000000000000000000000000000000000000000081526004016110ef9190611737565b60405180910390fd5b600073ffffffffffffffffffffffffffffffffffffffff168373ffffffffffffffffffffffffffffffffffffffff160361116a5760006040517f94280d620000000000000000000000000000000000000000000000000000000081526004016111619190611737565b60405180910390fd5b81600160008673ffffffffffffffffffffffffffffffffffffffff1673ffffffffffffffffffffffffffffffffffffffff16815260200190815260200160002060008573ffffffffffffffffffffffffffffffffffffffff1673ffffffffffffffffffffffffffffffffffffffff168152602001908152602001600020819055508015611257578273ffffffffffffffffffffffffffffffffffffffff168473ffffffffffffffffffffffffffffffffffffffff167f8c5be1e5ebec7d5bd14f71427d1e84f3dd0314c0f7b2291e5b200ac8c7c3b9258460405161124e91906115cd565b60405180910390a35b50505050565b6000604051905090565b600080fd5b600080fd5b600080fd5b600080fd5b6000601f19601f8301169050919050565b7f4e487b7100000000000000000000000000000000000000000000000000000000600052604160045260246000fd5b6112c48261127b565b810181811067ffffffffffffffff821117156112e3576112e261128c565b5b80604052505050565b60006112f661125d565b905061130282826112bb565b919050565b600067ffffffffffffffff8211156113225761132161128c565b5b61132b8261127b565b9050602081019050919050565b82818337600083830152505050565b600061135a61135584611307565b6112ec565b90508281526020810184848401111561137657611375611276565b5b611381848285611338565b509392505050565b600082601f83011261139e5761139d611271565b5b81356113ae848260208601611347565b91505092915050565b6000819050919050565b6113ca816113b7565b81146113d557600080fd5b50565b6000813590506113e7816113c1565b92915050565b6000806040838503121561140457611403611267565b5b600083013567ffffffffffffffff8111156114225761142161126c565b5b61142e85828601611389565b925050602061143f858286016113d8565b9150509250929050565b600081519050919050565b600082825260208201905092915050565b60005b83811015611483578082015181840152602081019050611468565b60008484015250505050565b600061149a82611449565b6114a48185611454565b93506114b4818560208601611465565b6114bd8161127b565b840191505092915050565b600060208201905081810360008301526114e2818461148f565b905092915050565b600073ffffffffffffffffffffffffffffffffffffffff82169050919050565b6000611515826114ea565b9050919050565b6115258161150a565b811461153057600080fd5b50565b6000813590506115428161151c565b92915050565b6000806040838503121561155f5761155e611267565b5b600061156d85828601611533565b925050602061157e858286016113d8565b9150509250929050565b60008115159050919050565b61159d81611588565b82525050565b60006020820190506115b86000830184611594565b92915050565b6115c7816113b7565b82525050565b60006020820190506115e260008301846115be565b92915050565b60008060006060848603121561160157611600611267565b5b600061160f86828701611533565b935050602061162086828701611533565b9250506040611631868287016113d8565b9150509250925092565b6000806040838503121561165257611651611267565b5b6000611660858286016113d8565b925050602083013567ffffffffffffffff8111156116815761168061126c565b5b61168d85828601611389565b9150509250929050565b600060ff82169050919050565b6116ad81611697565b82525050565b60006020820190506116c860008301846116a4565b92915050565b6000602082840312156116e4576116e3611267565b5b60006116f2848285016113d8565b91505092915050565b60006020828403121561171157611710611267565b5b600061171f84828501611533565b91505092915050565b6117318161150a565b82525050565b600060208201905061174c6000830184611728565b92915050565b6000806040838503121561176957611768611267565b5b600061177785828601611533565b925050602061178885828601611533565b9150509250929050565b7f4e6f7420746865206f776e657200000000000000000000000000000000000000600082015250565b60006117c8600d83611454565b91506117d382611792565b602082019050919050565b600060208201905081810360008301526117f7816117bb565b9050919050565b600081905092915050565b600061181482611449565b61181e81856117fe565b935061182e818560208601611465565b80840191505092915050565b60006118468284611809565b915081905092915050565b6000604082019050818103600083015261186b818561148f565b905061187a60208301846115be565b9392505050565b7f4e487b7100000000000000000000000000000000000000000000000000000000600052602260045260246000fd5b600060028204905060018216806118c857607f821691505b6020821081036118db576118da611881565b5b50919050565b7f53746f72652061646472657373206e6f74207365740000000000000000000000600082015250565b6000611917601583611454565b9150611922826118e1565b602082019050919050565b600060208201905081810360008301526119468161190a565b9050919050565b7f496e76616c6964206f7220696e73756666696369656e7420726564656d70746960008201527f6f6e20636f646500000000000000000000000000000000000000000000000000602082015250565b60006119a9602783611454565b91506119b48261194d565b604082019050919050565b600060208201905081810360008301526119d88161199c565b9050919050565b7f4e487b7100000000000000000000000000000000000000000000000000000000600052601160045260246000fd5b6000611a19826113b7565b9150611a24836113b7565b9250828203905081811115611a3c57611a3b6119df565b5b92915050565b6000604082019050611a5760008301856115be565b8181036020830152611a69818461148f565b90509392505050565b6000606082019050611a876000830186611728565b611a9460208301856115be565b611aa160408301846115be565b949350505050565b6000611ab4826113b7565b9150611abf836113b7565b9250828201905080821115611ad757611ad66119df565b5b9291505056fea26469706673582212206440dc42a0486f4d073cf2ebb5125d9982d1f0ff768cf775babc6ff06674a2d364736f6c63430008140033",
  "linkReferences": {},
  "deployedLinkReferences": {}
}